{
  "contractName": "BookMarketplace",
  "abi": [
    {
      "inputs": [],
      "stateMutability": "nonpayable",
      "type": "constructor"
    },
    {
      "inputs": [],
      "name": "BookHasOwner",
      "type": "error"
    },
    {
      "inputs": [],
      "name": "BookIsNotCreated",
      "type": "error"
    },
    {
      "inputs": [],
      "name": "InvalidState",
      "type": "error"
    },
    {
      "inputs": [],
      "name": "OnlyOwner",
      "type": "error"
    },
    {
      "inputs": [],
      "name": "SenderIsNotBookOwner",
      "type": "error"
    },
    {
      "inputs": [],
      "name": "isStopped",
      "outputs": [
        {
          "internalType": "bool",
          "name": "",
          "type": "bool"
        }
      ],
      "stateMutability": "view",
      "type": "function",
      "constant": true
    },
    {
      "stateMutability": "payable",
      "type": "receive",
      "payable": true
    },
    {
      "inputs": [
        {
          "internalType": "uint256",
          "name": "amount",
          "type": "uint256"
        }
      ],
      "name": "withdraw",
      "outputs": [],
      "stateMutability": "nonpayable",
      "type": "function"
    },
    {
      "inputs": [],
      "name": "emergencyWithdraw",
      "outputs": [],
      "stateMutability": "nonpayable",
      "type": "function"
    },
    {
      "inputs": [],
      "name": "selfDestruct",
      "outputs": [],
      "stateMutability": "nonpayable",
      "type": "function"
    },
    {
      "inputs": [],
      "name": "stopContract",
      "outputs": [],
      "stateMutability": "nonpayable",
      "type": "function"
    },
    {
      "inputs": [],
      "name": "resumeContract",
      "outputs": [],
      "stateMutability": "nonpayable",
      "type": "function"
    },
    {
      "inputs": [
        {
          "internalType": "bytes16",
          "name": "bookId",
          "type": "bytes16"
        },
        {
          "internalType": "bytes32",
          "name": "proof",
          "type": "bytes32"
        }
      ],
      "name": "purchaseBook",
      "outputs": [],
      "stateMutability": "payable",
      "type": "function",
      "payable": true
    },
    {
      "inputs": [
        {
          "internalType": "bytes32",
          "name": "bookHash",
          "type": "bytes32"
        }
      ],
      "name": "activateBook",
      "outputs": [],
      "stateMutability": "nonpayable",
      "type": "function"
    },
    {
      "inputs": [
        {
          "internalType": "bytes32",
          "name": "bookHash",
          "type": "bytes32"
        }
      ],
      "name": "repurchaseBook",
      "outputs": [],
      "stateMutability": "payable",
      "type": "function",
      "payable": true
    },
    {
      "inputs": [
        {
          "internalType": "bytes32",
          "name": "bookHash",
          "type": "bytes32"
        }
      ],
      "name": "deactivateBook",
      "outputs": [],
      "stateMutability": "nonpayable",
      "type": "function"
    },
    {
      "inputs": [
        {
          "internalType": "address",
          "name": "newOwner",
          "type": "address"
        }
      ],
      "name": "transferOwnership",
      "outputs": [],
      "stateMutability": "nonpayable",
      "type": "function"
    },
    {
      "inputs": [],
      "name": "getBookCount",
      "outputs": [
        {
          "internalType": "uint256",
          "name": "",
          "type": "uint256"
        }
      ],
      "stateMutability": "view",
      "type": "function",
      "constant": true
    },
    {
      "inputs": [
        {
          "internalType": "uint256",
          "name": "index",
          "type": "uint256"
        }
      ],
      "name": "getBookHashAtIndex",
      "outputs": [
        {
          "internalType": "bytes32",
          "name": "",
          "type": "bytes32"
        }
      ],
      "stateMutability": "view",
      "type": "function",
      "constant": true
    },
    {
      "inputs": [
        {
          "internalType": "bytes32",
          "name": "bookHash",
          "type": "bytes32"
        }
      ],
      "name": "getBookByHash",
      "outputs": [
        {
          "components": [
            {
              "internalType": "uint256",
              "name": "id",
              "type": "uint256"
            },
            {
              "internalType": "uint256",
              "name": "price",
              "type": "uint256"
            },
            {
              "internalType": "bytes32",
              "name": "proof",
              "type": "bytes32"
            },
            {
              "internalType": "address",
              "name": "owner",
              "type": "address"
            },
            {
              "internalType": "enum BookMarketplace.State",
              "name": "state",
              "type": "uint8"
            }
          ],
          "internalType": "struct BookMarketplace.Book",
          "name": "",
          "type": "tuple"
        }
      ],
      "stateMutability": "view",
      "type": "function",
      "constant": true
    },
    {
      "inputs": [],
      "name": "getContractOwner",
      "outputs": [
        {
          "internalType": "address",
          "name": "",
          "type": "address"
        }
      ],
      "stateMutability": "view",
      "type": "function",
      "constant": true
    }
  ],
  "bytecode": "0x608060405260008060006101000a81548160ff02191690831515021790555034801561002a57600080fd5b5061003a3361003f60201b60201c565b610083565b80600460006101000a81548173ffffffffffffffffffffffffffffffffffffffff021916908373ffffffffffffffffffffffffffffffffffffffff16021790555050565b6119d7806100926000396000f3fe6080604052600436106100ec5760003560e01c806367d98f951161008a578063cb94fe0c11610059578063cb94fe0c146102a4578063d73e0c89146102c0578063db2e21bc146102eb578063f2fde38b14610302576100f3565b806367d98f951461021d5780638566c6701461025a5780639cb8a26a14610276578063c4bc5da51461028d576100f3565b80633e253ece116100c65780633e253ece146101615780633f683b6a1461018a578063442890d5146101b5578063558cc06a146101e0576100f3565b806312253a6c146100f85780632e1a7d4d1461010f57806337af07c914610138576100f3565b366100f357005b600080fd5b34801561010457600080fd5b5061010d61032b565b005b34801561011b57600080fd5b5061013660048036038101906101319190611493565b6103b3565b005b34801561014457600080fd5b5061015f600480360381019061015a919061146a565b6104f1565b005b34801561016d57600080fd5b506101886004803603810190610183919061146a565b6106dd565b005b34801561019657600080fd5b5061019f6109a8565b6040516101ac919061168f565b60405180910390f35b3480156101c157600080fd5b506101ca6109b9565b6040516101d79190611674565b60405180910390f35b3480156101ec57600080fd5b506102076004803603810190610202919061146a565b6109e3565b6040516102149190611705565b60405180910390f35b34801561022957600080fd5b50610244600480360381019061023f9190611493565b610b0b565b60405161025191906116aa565b60405180910390f35b610274600480360381019061026f919061142e565b610b28565b005b34801561028257600080fd5b5061028b610d2d565b005b34801561029957600080fd5b506102a2610deb565b005b6102be60048036038101906102b9919061146a565b610e73565b005b3480156102cc57600080fd5b506102d561103a565b6040516102e29190611720565b60405180910390f35b3480156102f757600080fd5b50610300611044565b005b34801561030e57600080fd5b5061032960048036038101906103249190611405565b611198565b005b6103336109b9565b73ffffffffffffffffffffffffffffffffffffffff163373ffffffffffffffffffffffffffffffffffffffff1614610397576040517f5fc483c500000000000000000000000000000000000000000000000000000000815260040160405180910390fd5b60016000806101000a81548160ff021916908315150217905550565b6103bb6109b9565b73ffffffffffffffffffffffffffffffffffffffff163373ffffffffffffffffffffffffffffffffffffffff161461041f576040517f5fc483c500000000000000000000000000000000000000000000000000000000815260040160405180910390fd5b6000600460009054906101000a900473ffffffffffffffffffffffffffffffffffffffff1673ffffffffffffffffffffffffffffffffffffffff16826040516104679061165f565b60006040518083038185875af1925050503d80600081146104a4576040519150601f19603f3d011682016040523d82523d6000602084013e6104a9565b606091505b50509050806104ed576040517f08c379a00000000000000000000000000000000000000000000000000000000081526004016104e4906116e5565b60405180910390fd5b5050565b60008054906101000a900460ff161561050957600080fd5b6105116109b9565b73ffffffffffffffffffffffffffffffffffffffff163373ffffffffffffffffffffffffffffffffffffffff1614610575576040517f5fc483c500000000000000000000000000000000000000000000000000000000815260040160405180910390fd5b61057e81611210565b6105b4576040517fc1abe49a00000000000000000000000000000000000000000000000000000000815260040160405180910390fd5b600060016000838152602001908152602001600020905060006002811115610605577f4e487b7100000000000000000000000000000000000000000000000000000000600052602160045260246000fd5b8160030160149054906101000a900460ff16600281111561064f577f4e487b7100000000000000000000000000000000000000000000000000000000600052602160045260246000fd5b14610686576040517fbaf3f0f700000000000000000000000000000000000000000000000000000000815260040160405180910390fd5b60018160030160146101000a81548160ff021916908360028111156106d4577f4e487b7100000000000000000000000000000000000000000000000000000000600052602160045260246000fd5b02179055505050565b60008054906101000a900460ff16156106f557600080fd5b6106fd6109b9565b73ffffffffffffffffffffffffffffffffffffffff163373ffffffffffffffffffffffffffffffffffffffff1614610761576040517f5fc483c500000000000000000000000000000000000000000000000000000000815260040160405180910390fd5b61076a81611210565b6107a0576040517fc1abe49a00000000000000000000000000000000000000000000000000000000815260040160405180910390fd5b6000600160008381526020019081526020016000209050600060028111156107f1577f4e487b7100000000000000000000000000000000000000000000000000000000600052602160045260246000fd5b8160030160149054906101000a900460ff16600281111561083b577f4e487b7100000000000000000000000000000000000000000000000000000000600052602160045260246000fd5b14610872576040517fbaf3f0f700000000000000000000000000000000000000000000000000000000815260040160405180910390fd5b60008160030160009054906101000a900473ffffffffffffffffffffffffffffffffffffffff1673ffffffffffffffffffffffffffffffffffffffff1682600101546040516108c09061165f565b60006040518083038185875af1925050503d80600081146108fd576040519150601f19603f3d011682016040523d82523d6000602084013e610902565b606091505b5050905080610946576040517f08c379a000000000000000000000000000000000000000000000000000000000815260040161093d906116c5565b60405180910390fd5b60028260030160146101000a81548160ff02191690836002811115610994577f4e487b7100000000000000000000000000000000000000000000000000000000600052602160045260246000fd5b021790555060008260010181905550505050565b60008054906101000a900460ff1681565b6000600460009054906101000a900473ffffffffffffffffffffffffffffffffffffffff16905090565b6109eb611331565b600160008381526020019081526020016000206040518060a00160405290816000820154815260200160018201548152602001600282015481526020016003820160009054906101000a900473ffffffffffffffffffffffffffffffffffffffff1673ffffffffffffffffffffffffffffffffffffffff1673ffffffffffffffffffffffffffffffffffffffff1681526020016003820160149054906101000a900460ff166002811115610ac8577f4e487b7100000000000000000000000000000000000000000000000000000000600052602160045260246000fd5b6002811115610b00577f4e487b7100000000000000000000000000000000000000000000000000000000600052602160045260246000fd5b815250509050919050565b600060026000838152602001908152602001600020549050919050565b60008054906101000a900460ff1615610b4057600080fd5b60008233604051602001610b55929190611633565b604051602081830303815290604052805190602001209050610b768161127f565b15610bad576040517f979b93f000000000000000000000000000000000000000000000000000000000815260040160405180910390fd5b600060036000815480929190610bc2906117fa565b9190505590508160026000838152602001908152602001600020819055506040518060a001604052808281526020013481526020018481526020013373ffffffffffffffffffffffffffffffffffffffff16815260200160006002811115610c53577f4e487b7100000000000000000000000000000000000000000000000000000000600052602160045260246000fd5b8152506001600084815260200190815260200160002060008201518160000155602082015181600101556040820151816002015560608201518160030160006101000a81548173ffffffffffffffffffffffffffffffffffffffff021916908373ffffffffffffffffffffffffffffffffffffffff16021790555060808201518160030160146101000a81548160ff02191690836002811115610d1f577f4e487b7100000000000000000000000000000000000000000000000000000000600052602160045260246000fd5b021790555090505050505050565b60008054906101000a900460ff16610d4457600080fd5b610d4c6109b9565b73ffffffffffffffffffffffffffffffffffffffff163373ffffffffffffffffffffffffffffffffffffffff1614610db0576040517f5fc483c500000000000000000000000000000000000000000000000000000000815260040160405180910390fd5b600460009054906101000a900473ffffffffffffffffffffffffffffffffffffffff1673ffffffffffffffffffffffffffffffffffffffff16ff5b610df36109b9565b73ffffffffffffffffffffffffffffffffffffffff163373ffffffffffffffffffffffffffffffffffffffff1614610e57576040517f5fc483c500000000000000000000000000000000000000000000000000000000815260040160405180910390fd5b60008060006101000a81548160ff021916908315150217905550565b60008054906101000a900460ff1615610e8b57600080fd5b610e9481611210565b610eca576040517fc1abe49a00000000000000000000000000000000000000000000000000000000815260040160405180910390fd5b610ed38161127f565b610f09576040517fdde8986000000000000000000000000000000000000000000000000000000000815260040160405180910390fd5b6000600160008381526020019081526020016000209050600280811115610f59577f4e487b7100000000000000000000000000000000000000000000000000000000600052602160045260246000fd5b8160030160149054906101000a900460ff166002811115610fa3577f4e487b7100000000000000000000000000000000000000000000000000000000600052602160045260246000fd5b14610fda576040517fbaf3f0f700000000000000000000000000000000000000000000000000000000815260040160405180910390fd5b60008160030160146101000a81548160ff02191690836002811115611028577f4e487b7100000000000000000000000000000000000000000000000000000000600052602160045260246000fd5b02179055503481600101819055505050565b6000600354905090565b60008054906101000a900460ff1661105b57600080fd5b6110636109b9565b73ffffffffffffffffffffffffffffffffffffffff163373ffffffffffffffffffffffffffffffffffffffff16146110c7576040517f5fc483c500000000000000000000000000000000000000000000000000000000815260040160405180910390fd5b6000600460009054906101000a900473ffffffffffffffffffffffffffffffffffffffff1673ffffffffffffffffffffffffffffffffffffffff164760405161110f9061165f565b60006040518083038185875af1925050503d806000811461114c576040519150601f19603f3d011682016040523d82523d6000602084013e611151565b606091505b5050905080611195576040517f08c379a000000000000000000000000000000000000000000000000000000000815260040161118c906116e5565b60405180910390fd5b50565b6111a06109b9565b73ffffffffffffffffffffffffffffffffffffffff163373ffffffffffffffffffffffffffffffffffffffff1614611204576040517f5fc483c500000000000000000000000000000000000000000000000000000000815260040160405180910390fd5b61120d816112ed565b50565b60008073ffffffffffffffffffffffffffffffffffffffff166001600084815260200190815260200160002060030160009054906101000a900473ffffffffffffffffffffffffffffffffffffffff1673ffffffffffffffffffffffffffffffffffffffff1614159050919050565b60003373ffffffffffffffffffffffffffffffffffffffff166001600084815260200190815260200160002060030160009054906101000a900473ffffffffffffffffffffffffffffffffffffffff1673ffffffffffffffffffffffffffffffffffffffff16149050919050565b80600460006101000a81548173ffffffffffffffffffffffffffffffffffffffff021916908373ffffffffffffffffffffffffffffffffffffffff16021790555050565b6040518060a00160405280600081526020016000815260200160008019168152602001600073ffffffffffffffffffffffffffffffffffffffff168152602001600060028111156113ab577f4e487b7100000000000000000000000000000000000000000000000000000000600052602160045260246000fd5b81525090565b6000813590506113c081611945565b92915050565b6000813590506113d58161195c565b92915050565b6000813590506113ea81611973565b92915050565b6000813590506113ff8161198a565b92915050565b60006020828403121561141757600080fd5b6000611425848285016113b1565b91505092915050565b6000806040838503121561144157600080fd5b600061144f858286016113c6565b9250506020611460858286016113db565b9150509250929050565b60006020828403121561147c57600080fd5b600061148a848285016113db565b91505092915050565b6000602082840312156114a557600080fd5b60006114b3848285016113f0565b91505092915050565b6114c581611757565b82525050565b6114d481611757565b82525050565b6114eb6114e682611757565b611843565b82525050565b6114fa81611769565b82525050565b61151161150c82611775565b611855565b82525050565b611520816117a1565b82525050565b61152f816117a1565b82525050565b61153e816117e8565b82525050565b6000611551600f83611746565b915061155c826118dc565b602082019050919050565b6000611574601083611746565b915061157f82611905565b602082019050919050565b600061159760008361173b565b91506115a28261192e565b600082019050919050565b60a0820160008201516115c36000850182611615565b5060208201516115d66020850182611615565b5060408201516115e96040850182611517565b5060608201516115fc60608501826114bc565b50608082015161160f6080850182611535565b50505050565b61161e816117de565b82525050565b61162d816117de565b82525050565b600061163f8285611500565b60108201915061164f82846114da565b6014820191508190509392505050565b600061166a8261158a565b9150819050919050565b600060208201905061168960008301846114cb565b92915050565b60006020820190506116a460008301846114f1565b92915050565b60006020820190506116bf6000830184611526565b92915050565b600060208201905081810360008301526116de81611544565b9050919050565b600060208201905081810360008301526116fe81611567565b9050919050565b600060a08201905061171a60008301846115ad565b92915050565b60006020820190506117356000830184611624565b92915050565b600081905092915050565b600082825260208201905092915050565b6000611762826117be565b9050919050565b60008115159050919050565b60007fffffffffffffffffffffffffffffffff0000000000000000000000000000000082169050919050565b6000819050919050565b60008190506117b982611931565b919050565b600073ffffffffffffffffffffffffffffffffffffffff82169050919050565b6000819050919050565b60006117f3826117ab565b9050919050565b6000611805826117de565b91507fffffffffffffffffffffffffffffffffffffffffffffffffffffffffffffffff82141561183857611837611871565b5b600182019050919050565b600061184e8261185f565b9050919050565b6000819050919050565b600061186a826118cf565b9050919050565b7f4e487b7100000000000000000000000000000000000000000000000000000000600052601160045260246000fd5b7f4e487b7100000000000000000000000000000000000000000000000000000000600052602160045260246000fd5b60008160601b9050919050565b7f5472616e73666572206661696c65640000000000000000000000000000000000600082015250565b7f5472616e73666572206661696c65642100000000000000000000000000000000600082015250565b50565b60038110611942576119416118a0565b5b50565b61194e81611757565b811461195957600080fd5b50565b61196581611775565b811461197057600080fd5b50565b61197c816117a1565b811461198757600080fd5b50565b611993816117de565b811461199e57600080fd5b5056fea26469706673582212207184cc4ff730b9bdfcaca0d171368b47fb9cfb879a31453993dab0d757086b7b64736f6c63430008040033",
  "immutableReferences": {},
  "source": "// SPDX-License-Identifier: MIT\npragma solidity >=0.4.22 <0.9.0;\n\nimport \"./ErrorMessages.sol\";\n\ncontract BookMarketplace is ErrorMessages{\n\n  enum State {\n    Purchased,\n    Activated,\n    Deactivated\n  }\n\n  struct Book {\n    uint id; // 32\n    uint price; // 32\n    bytes32 proof; // 32 keccak is 32 bytes hash\n    address owner; // 20\n    State state; // 1\n  }\n\n  bool public isStopped=false; \n\n  mapping(bytes32 => Book) private ownedBooks;\n\n  // mapping of bookID to bookHash\n  mapping(uint => bytes32) private ownedBookHash;\n\n  uint private totalOwnedBooks;\n  address payable private owner;\n\n  constructor() {\n    setContractOwner(msg.sender);\n  }\n  \n  modifier onlyOwner() {\n    if (msg.sender != getContractOwner()) {\n      revert OnlyOwner();\n    }\n    _;\n  }\n\n  modifier onlyWhenNotStopped{\n    require(!isStopped);\n    _;\n  }\n\n  modifier onlyWhenStopped{\n    require(isStopped);\n    _;\n  }\n\n// We might need to fund the conract. receive is a reserved word\n   receive() external payable{\n\n   }\n\n   // this will transfer amount to the owner\n   function withdraw(uint amount) external onlyOwner{\n     (bool success,)=owner.call{value:amount}(\"\");\n     require(success,\"Transfer failed!\");\n\n   }\n  // incase contract is attacked, withdraw everything\n   function emergencyWithdraw() external onlyWhenStopped onlyOwner {\n     (bool success,)=owner.call{value:address(this).balance}(\"\");\n     require(success,\"Transfer failed!\");\n   }\n\n   function selfDestruct() external onlyWhenStopped onlyOwner{\n     // this will destruct the contract and transfer the remaining balance to the owner\n     // selfdestruct() effectively removes the deployed bytecode from the contract address.\n     selfdestruct(owner);\n   }\n\n  function stopContract() external onlyOwner{\n       isStopped=true;\n\n  }\n\n  function resumeContract() external onlyOwner{\n    isStopped=false;\n  }\n\n  function purchaseBook(\n    bytes16 bookId, // 0x00000000000000000000000000003130\n    bytes32 proof // 0x0000000000000000000000000000313000000000000000000000000000003130\n  )\n    external\n    payable\n    onlyWhenNotStopped\n  {\n    bytes32 bookHash = keccak256(abi.encodePacked(bookId, msg.sender));\n\n    if (hasBookOwnership(bookHash)) {\n      revert BookHasOwner();\n    }\n\n    uint id = totalOwnedBooks++;\n\n    ownedBookHash[id] = bookHash;\n    ownedBooks[bookHash] = Book({\n      id: id,\n      price: msg.value,\n      proof: proof,\n      owner: msg.sender,\n      state: State.Purchased\n    });\n  }\n\n  function activateBook(bytes32 bookHash)\n    external \n    onlyWhenNotStopped\n    onlyOwner\n\n  {\n    if(!isBookCreated(bookHash)){\n      revert BookIsNotCreated();\n    }\n    // since we use storage, we can manipulate the data\n    Book storage book=ownedBooks[bookHash];\n    if (book.state!=State.Purchased){\n      revert InvalidState();\n    }\n    book.state=State.Activated;\n  }\n  \n  // keccak hash is 32 bytes\n  function repurchaseBook(bytes32 bookHash)\n  external \n  payable\n  onlyWhenNotStopped\n\n  {\n     if(!isBookCreated(bookHash)){\n      revert BookIsNotCreated();\n    }\n    if(!hasBookOwnership(bookHash)){\n      revert SenderIsNotBookOwner();\n    }\n    // at this point, we are sure the we are the owner\n    Book storage book=ownedBooks[bookHash];\n    // we can repurchase only if the current state is deactivated\n    if(book.state!=State.Deactivated){\n      revert InvalidState();\n    }\n    book.state=State.Purchased;\n    book.price=msg.value;\n  \n  }\n\n  function deactivateBook(bytes32 bookHash)\n    external \n    onlyWhenNotStopped\n    onlyOwner\n  {\n    if(!isBookCreated(bookHash)){\n      revert BookIsNotCreated();\n    }\n    // since we use storage, we can manipulate the data\n    Book storage book=ownedBooks[bookHash];\n    if (book.state!=State.Purchased){\n      revert InvalidState();\n    }\n    // transfer ether back to the owner\n    (bool success, )=book.owner.call{value:book.price}(\"\");\n    require(success, \"Transfer failed\");\n\n    book.state=State.Deactivated;\n    book.price=0;\n  }\n\n\n\n  function transferOwnership(address newOwner)\n    external\n    onlyOwner\n  {\n    setContractOwner(newOwner);\n  }\n\n  function getBookCount()\n    external\n    view\n    returns (uint)\n  {\n    return totalOwnedBooks;\n  }\n\n  function getBookHashAtIndex(uint index)\n    external\n    view\n    returns (bytes32)\n  {\n    return ownedBookHash[index];\n  }\n\n  function getBookByHash(bytes32 bookHash)\n    external\n    view\n    returns (Book memory)\n  {\n    return ownedBooks[bookHash];\n  }\n\n  function getContractOwner()\n    public\n    view\n    returns (address)\n  {\n    return owner;\n  }\n\n  function setContractOwner(address newOwner) private {\n    owner = payable(newOwner);\n  }\n\n  function isBookCreated(bytes32 bookHash)\n  private\n  view\n  returns (bool)\n  {\n    return ownedBooks[bookHash].owner !=0x0000000000000000000000000000000000000000;\n  }\n\n  function hasBookOwnership(bytes32 bookHash)\n    private\n    view\n    returns (bool)\n  {\n    return ownedBooks[bookHash].owner == msg.sender;\n  }\n}\n",
  "sourcePath": "/home/tesla/Documents/projects/ethereum/bookstore-eth/contracts/BookMarketplace.sol",
  "compiler": {
    "name": "solc",
    "version": "0.8.4+commit.c7e474f2.Emscripten.clang"
  },
  "schemaVersion": "3.4.2",
  "updatedAt": "2022-01-04T18:29:28.821Z",
  "networkType": "ethereum",
  "devdoc": {
    "kind": "dev",
    "methods": {},
    "version": 1
  },
  "userdoc": {
    "errors": {
      "BookHasOwner()": [
        {
          "notice": "Book has already a Owner!"
        }
      ],
      "BookIsNotCreated()": [
        {
          "notice": "Book is not created"
        }
      ],
      "InvalidState()": [
        {
          "notice": "Book has invalid state!"
        }
      ],
      "OnlyOwner()": [
        {
          "notice": "Only owner has an access!"
        }
      ],
      "SenderIsNotBookOwner()": [
        {
          "notice": "Sender is not book owner!"
        }
      ]
    },
    "kind": "user",
    "methods": {},
    "version": 1
  }
}